:100000008DC0A7C0A6C0A5C0A4C0A3C0A2C0A1C0E7
:10001000A0C09FC09EC09DC09CC09BC09AC099C0FC
:1000200098C000407A10F35A00A0724E18090010D0
:10003000A5D4E80000E87648170000E40B5402005D
:1000400000CA9A3B000000E1F50500008096980088
:10005000000040420F000000A086010000001027B1
:1000600000000000E8030000000064000000000041
:100070000A00000000000100000000002C76D88873
:10008000DC674F0823DFC1DFAE59E1B1B796E5E386
:10009000E453C63AE651997696E8E6C28426EB899F
:1000A0008C9B62ED407C6FFCEFBC9C9F40F2BAA53C
:1000B0006FA5F490055A2AF75C936B6CF9676DC1D4
:1000C0001BFCE0E40D47FEF520E6B500D0ED902ED8
:1000D0000300943577050080841E080000204E0A36
:1000E000000000C80C333333330F986E1283114174
:1000F000EF8D2114893BE65516CFFEE6DB18D1843F
:100100004B381BF77C1D901DA4BBE4242032847265
:100110005E228100C9F124ECA1E53D2711241FBE18
:10012000CFE5D2E0DEBFCDBF10E0A0E6B0E0ECEE60
:10013000FFE002C005900D92A23BB107D9F710E095
:10014000A2EBB0E001C01D92A33DB107E1F702D0E0
:100150004BC756CFCDD280E090E00895AD9A8FE2A4
:1001600095E70197F1F700C00000AD980895AC9AAB
:1001700082BBF4DF0895AC9882BBF0DF089584B3AE
:10018000806384BB8FEF81BB81E0F5DF8CE0F3DF20
:1001900088E3F1DF86E0EFDF80E8EDDF0895EF929E
:1001A000FF92CF93DF93E82EE7017E01F92EE7015E
:1001B00001C0DDDF89918823E1F7DF91CF91FF90C6
:1001C000EF900895009711F080EC01C080E8860F51
:1001D000D2DF089581E0CFDF089587B38F6087BBBA
:1001E00084B3807F84BB089541E050E085B38F6085
:1001F00085BBE0E0F0E0CA010E2E02C0880F991F17
:100200000A94E2F7809588BB80E090E023B330E069
:10021000082E02C0359527950A94E2F720FD23C0E9
:1002200021E030E0082E02C0220F331F0A94E2F7CB
:1002300009C04FE758E361E0415050406040E1F7AA
:1002400000C0000043B350E0422353234115510541
:1002500081F3EE0FFF1FEE0FFF1FE80FF91FE05AAB
:10026000FF4F8081089501968430910579F631968B
:10027000E430F10509F0BFCFB9CF0F931F93E42FFE
:10028000A9019801EB3251F0EC3218F4EA3269F42A
:1002900009C0ED3229F0EF3241F406C038D205C072
:1002A00035D203C0BAD301C09AD2262F372F482F98
:1002B000592F2093C9003093CA004093CB0050932C
:1002C000CC001F910F910895EF92FF920F931F930F
:1002D00081E090E060E070E075DF80E790E05FDF54
:1002E000E090C900F090CA000091CB001091CC00C2
:1002F000C801B70125EA34ED48E653E56CD218167B
:100300004CF0C801B70142EF2CE002EB10E0E8D35B
:10031000C80102C083EA90E042DF84E090E090935D
:10032000C8008093C7001F910F91FF90EF90089530
:10033000805D1DDF08954EDF83E790E030DF81E0D0
:1003400090E060E070E03EDF84E890E028DF10920B
:10035000CE001092CD001092C8001092C7001092EB
:10036000C20080E090E0DC018093C3009093C40061
:10037000A093C500B093C6008093CF009093D000A7
:10038000A093D100B093D2008093C9009093CA008B
:10039000A093CB00B093CC000895AF92BF92CF92C0
:1003A000DF92FF920F931F93CF93DF93F82E182FB6
:1003B000105300E20F2EF0E0AF2EF0E0BF2EF0E081
:1003C000CF2EF0E0DF2EF02DC1E0D0E01A3008F0A3
:1003D000C5C08091C7009091C8008230910509F492
:1003E0004CC08330910538F4009771F0813091054D
:1003F00009F071C112C08330910509F446C0843000
:10040000910509F068C17BC0112339F0E3DE81E07A
:1004100090E09093C8008093C7008091CD009091A8
:10042000CE008E30910509F456C16091CF007091D5
:10043000D0008091D1009091D20020E030E040E2E5
:1004400051E4EBD25B016C01612F70E0882777FDEE
:100450008095982F2ED29B01AC01C601B50157D1D2
:10046000262F372F482F592F2093CF003093D000BD
:100470004093D1005093D2002FC0112331F083E07C
:1004800090E09093C8008093C7006091C300709182
:10049000C4008091C5009091C60020E030E040E2A9
:1004A00051E4BBD25B016C01612F70E0882777FDBE
:1004B0008095982FFED19B01AC01C601B50127D1D3
:1004C000262F372F482F592F2093C3003093C40075
:1004D0004093C5005093C60020E030E0A90199D2B6
:1004E00018160CF0F8C08F2D42DE8091CD0090914F
:1004F000CE0001969093CE008093CD00ECC01123E6
:1005000009F4E9C0009392000093930080E090E02A
:1005100060E070E057DE82E990E041DE80E090E04C
:1005200060E070E04FDE1092CE001092CD0010928D
:10053000C200A092C300B092C400C092C500D09285
:10054000C600A092CF00B092D000C092D100D0924D
:10055000D200D093C800C093C70038CF8F2D8F3200
:1005600099F0803348F48A3208F4B5C08C3260F0D8
:100570008D3209F0B0C008C08F2D8D3309F488C0CA
:10058000833409F0A8C0A0C08091C7009091C80032
:100590008230910581F08330910528F481309105F6
:1005A00009F073C015C08330910521F184309105A5
:1005B00009F06BC033C06091CD007091CE006150E6
:1005C00070407093CE006093CD0080E090E0FADD43
:1005D0008F2DCDDD8091CD009091CE00019690932E
:1005E000CE008093CD0082E090E09093C80080938D
:1005F000C7004BC06091CF007091D0008091D100B6
:100600009091D2000091C3001091C4002091C500C8
:100610003091C6004091C20030DE56DE80E090E0AE
:1006200060E070E0CFDD81E480939200F09293006F
:1006300082E990E0B4DD80E090E062E070E0C2DD4D
:1006400022E030E03093CE002093CD008091C900AD
:100650009091CA00A091CB00B091CC008093CF00C4
:100660009093D000A093D100B093D20080E090E0AE
:10067000DC018093C3009093C400A093C500B093A5
:10068000C6003093C8002093C700F092C20023C078
:100690008091C7009091C80083309105E1F460918A
:1006A000CF007091D0008091D1009091D200009144
:1006B000C3001091C4002091C5003091C600409144
:1006C000C200DBDD01DE07C08091C7009091C80049
:1006D000009709F030DEDF91CF911F910F91FF90CD
:1006E000DF90CF90BF90AF9008957EDD56DEFDCFB6
:1006F0008FEF94E3ACE081509040A040E1F700C060
:1007000000003DDD6ADD17DEF0DF08955058BB279D
:10071000AA270ED044C135D130F03AD120F031F4BF
:100720009F3F11F41EF42AC10EF4E095E7FB20C1AF
:10073000E92F46D180F3BA1762077307840795073C
:1007400018F071F49EF55EC10EF4E0950B2EBA2FF1
:10075000A02D0B01B90190010C01CA01A0011124C7
:10076000FF27591B99F0593F50F4503E68F11A1673
:10077000F040A22F232F342F4427585FF3CF469504
:1007800037952795A795F0405395C9F77EF41F1626
:10079000BA0B620B730B840BBAF09150A1F0FF0FF0
:1007A000BB1F661F771F881FC2F70EC0BA0F621FDC
:1007B000731F841F48F4879577956795B795F795CC
:1007C0009E3F08F0B3CF9395880F08F09927EE0F5E
:1007D000979587950895A8D008F481E008950CD0E6
:1007E000DEC0D6D040F0CDD030F021F45F3F19F01C
:1007F000BFC0511108C1C2C0E3D098F39923C9F317
:100800005523B1F3951B550BBB27AA276217730716
:10081000840738F09F5F5F4F220F331F441FAA1FCA
:10082000A9F333D00E2E3AF0E0E830D0915050408A
:10083000E695001CCAF729D0FE2F27D0660F771F38
:10084000881FBB1F261737074807AB07B0E809F01A
:10085000BB0B802DBF01FF2793585F4F2AF09E3FAF
:10086000510568F085C0CFC05F3FECF3983EDCF3E4
:10087000869577956795B795F7959F5FC9F7880F28
:10088000911D9695879597F90895E1E0660F771F7A
:10089000881FBB1F621773078407BA0720F0621B0B
:1008A000730B840BBA0BEE1F88F7E0950895E8945C
:1008B00009C097FB3EF490958095709561957F4FA8
:1008C0008F4F9F4F9923A9F0F92F96E9BB27939556
:1008D000F695879577956795B795F111F8CFFAF466
:1008E000BB0F11F460FF1BC06F5F7F4F8F4F9F4F97
:1008F00016C0882311F096E911C0772321F09EE8F5
:10090000872F762F05C0662371F096E8862F70E05A
:1009100060E02AF09A95660F771F881FDAF7880F34
:100920009695879597F90895990F0008550FAA0B8A
:10093000E0E8FEEF16161706E807F907C0F01216F2
:100940001306E407F50798F0621B730B840B950BF5
:1009500039F40A2661F0232B242B252B21F408954A
:100960000A2609F4A140A6958FEF811D811D0895E7
:1009700097F99F6780E870E060E008959FEF80EC52
:10098000089500240A9416161706180609060895F5
:1009900000240A9412161306140605060895092E5B
:1009A0000394000C11F4882352F0BB0F40F4BF2BCA
:1009B00011F460FF04C06F5F7F4F8F4F9F4F08950A
:1009C00057FD9058440F551F59F05F3F71F0479500
:1009D000880F97FB991F61F09F3F79F087950895E5
:1009E000121613061406551FF2CF4695F1DF08C004
:1009F000161617061806991FF1CF86957105610521
:100A000008940895E894BB2766277727CB0197F9C8
:100A100008958ADF08F48FEF08950BD0C0CFB1DFBF
:100A200028F0B6DF18F0952309F0A2CFA7CF112444
:100A3000EACFC6DFA0F3959FD1F3950F50E0551F85
:100A4000629FF001729FBB27F00DB11D639FAA2723
:100A5000F00DB11DAA1F649F6627B00DA11D661F72
:100A6000829F2227B00DA11D621F739FB00DA11D93
:100A7000621F839FA00D611D221F749F3327A00D4D
:100A8000611D231F849F600D211D822F762F6A2FE9
:100A900011249F5750408AF0E1F088234AF0EE0F6E
:100AA000FF1FBB1F661F771F881F91505040A9F77B
:100AB0009E3F510570F05CCFA6CF5F3FECF3983EB0
:100AC000DCF3869577956795B795F795E7959F5FE2
:100AD000C1F7FE2B880F911D9695879597F908957C
:100AE000EF92FF920F931F93322FF02E47FF02C019
:100AF000A4E101C0A4E0E42FFF27E7FDF095F7FF94
:100B000003C0F095E195FF4F4F2D512F2E2F032F4E
:100B1000EA2E07D08F2D912F1F910F91FF90EF900C
:100B20000895A9E0B0E0E6E9F5E02FC26A01F22EEF
:100B3000102F0C3318F4B02EB39402C0ECE3BE2E89
:100B4000AE014F5F5F4F27E00B2D3FD1298130E091
:100B5000A901497050704130510531F0E1FC06C0E7
:100B6000E0FE06C0E0E205C0EDE203C0EBE201C03A
:100B7000E0E023FF37C0EE2311F084E001C083E002
:100B80008F1518F4F81A8F2D01C080E0E4FC0BC01B
:100B9000982FD60120E202C02D9391509923E1F7BE
:100BA000C80ED11C80E0EE2319F0D601ED936D0143
:100BB000F6013196E2FE05C09EE4D6019C9321E445
:100BC00004C09EE6D6019C9321E611962C93918356
:100BD0003296982FDF0120E202C02D939150992385
:100BE000E1F73DC022FF41C0EE2311F084E001C0D7
:100BF00083E08F1518F4F81A8F2D01C080E0E4FC13
:100C00000BC0982FD60120E202C02D93915099235A
:100C1000E1F7C80ED11C80E0EE2319F0D601ED9368
:100C20006D01F6013196E2FE09C099E4D6019C936C
:100C30009EE411969C93119796E407C099E6D6011D
:100C40009C939EE611969C9396E691833296982FFC
:100C5000DF0120E202C02D9391509923E1F7E80FC4
:100C6000F11D10822EEF3FEFACC041E050E0EE23CB
:100C700011F440E050E01816190624F4BC016F5F2F
:100C80007F4F02C061E070E0640F751F112329F0EF
:100C9000412F50E04F5F5F4F02C040E050E0460FF1
:100CA000571F6F2D70E0461757071CF40F2D041BBC
:100CB00001C000E0FF24A70140715070E4FC0DC0AA
:100CC000E3FC0BC0602FD60170E202C07D9361503F
:100CD0006623E1F7C00ED11C00E0EE2319F0D60127
:100CE000ED936D014115510559F4402FF60150E384
:100CF00002C0519341504423E1F7C00ED11C00E0E3
:100D0000B80EFA80A9014071507024FF04C0BF2DB5
:100D1000B13309F4BA941B142CF4AB2DA93018F09C
:100D2000A8E001C0A1E09C0197FF02C020E030E0F4
:100D3000BC016F5F7F4F621B730BFE013196E60FA4
:100D4000F71F6EE2E62EBC016A1B7109A12FB0E00D
:100D5000AA24BB24AA1ABB0A1FEF2F3F310719F49C
:100D6000D601ED926D01821793072CF0621773077D
:100D700014F4108101C010E32150304031962A153F
:100D80003B0524F0D6011D936D01E6CF28173907E6
:100D900049F4BF2DB63328F4B53321F4411551057C
:100DA00009F411E3F6011193802FDF0190E202C0F4
:100DB0009D9381508823E1F7E00FF11D108220E020
:100DC00030E0C9012996EAE0FCC0283008F027E0AD
:100DD0003327DA01990F311D87FD91600096610577
:100DE000710539F432602E5F3D9330E32A95E1F7C7
:100DF00008959F3F30F080387105610509F03C5F30
:100E00003C5F3D93913008F08068911DDF93CF9354
:100E10001F930F93FF92EF92192F987F9695E92FCA
:100E200096959695E90FFF27E458FF4F99273327AA
:100E3000EE24FF24A701E70105900894079428F405
:100E4000360FE71EF81E491F511D660F771F881FBA
:100E5000991F0694A1F70590079428F4E70EF81E51
:100E6000491F561FC11D770F881F991F661F0694C3
:100E7000A1F70590079428F4F80E491F561FC71FC5
:100E8000D11D880F991F661F771F0694A1F7059043
:100E9000079420F4490F561FC71FD81F990F661FCC
:100EA000771F881F0694A9F784911095177041F059
:100EB000D695C79557954795F794E7941A95C1F736
:100EC000E2E2F0E068941590159135916591959165
:100ED00005907FE27395E118F10A430B560BC90B9D
:100EE000D009C0F7E10CF11E431F561FC91FD01DCA
:100EF0007EF4703311F48A95E6CFE894015030F017
:100F0000080F0AF40027021708F4202F2395022F58
:100F10007A3328F079E37D932A95E9F710C07D9321
:100F20002A9589F60694979567953795179517949E
:100F3000E118F10A430B560BC90BD00998F0239521
:100F40007E9173957A3308F070E37C932013B8F7A1
:100F50007E9170617D9330F0839571E37D9370E3B2
:100F60002A95E1F71124EF90FF900F911F91CF91F7
:100F7000DF91992787FD909508952F923F924F9288
:100F80005F926F927F928F929F92AF92BF92CF9219
:100F9000DF92EF92FF920F931F93CF93DF93CDB722
:100FA000DEB7CA1BDB0B0FB6F894DEBF0FBECDBF9A
:100FB00009942A88398848885F846E847D848C846B
:100FC0009B84AA84B984C884DF80EE80FD800C8174
:100FD0001B81AA81B981CE0FD11D0FB6F894DEBF57
:0C0FE0000FBECDBFED010895F894FFCFC7
:100FEC003738392F3435362A3132332D43303D2BB7
:100FFC00413D00435345203631323A2047726F75DC
:10100C007020370020202043616C63756C61746F15
:10101C007200202020202020202020202020202092
:10102C002020002020204F766572666C6F77202080
:02103C00200092
:00000001FF
