:100000008DC0A7C0A6C0A5C0A4C0A3C0A2C0A1C0E7
:10001000A0C09FC09EC09DC09CC09BC09AC099C0FC
:1000200098C000407A10F35A00A0724E18090010D0
:10003000A5D4E80000E87648170000E40B5402005D
:1000400000CA9A3B000000E1F50500008096980088
:10005000000040420F000000A086010000001027B1
:1000600000000000E8030000000064000000000041
:100070000A00000000000100000000002C76D88873
:10008000DC674F0823DFC1DFAE59E1B1B796E5E386
:10009000E453C63AE651997696E8E6C28426EB899F
:1000A0008C9B62ED407C6FFCEFBC9C9F40F2BAA53C
:1000B0006FA5F490055A2AF75C936B6CF9676DC1D4
:1000C0001BFCE0E40D47FEF520E6B500D0ED902ED8
:1000D0000300943577050080841E080000204E0A36
:1000E000000000C80C333333330F986E1283114174
:1000F000EF8D2114893BE65516CFFEE6DB18D1843F
:100100004B381BF77C1D901DA4BBE4242032847265
:100110005E228100C9F124ECA1E53D2711241FBE18
:10012000CFE5D2E0DEBFCDBF11E0A0E6B0E0E2EB6C
:10013000F7E102C005900D92A43AB107D9F711E09A
:10014000A4EAB1E001C01D92AA3CB107E1F702D0D8
:100150002ECB56CF79D380E090E00895AE9A000080
:10016000AE98000008958BBBF9DF8DE08A95F1F71A
:10017000000008958BBBF2DF8DE08A95F1F7000057
:10018000089584B3806584BB8FEF8ABBAE9885EAFF
:100190009EE00197F1F700C0000088E3EBDF81EEFD
:1001A00094E00197F1F700C0000088E3E3DF87EAFD
:1001B00091E60197F1F700C0000088E3DBDF8FE0F4
:1001C000D9DF83EC99E00197F1F700C0000081E0EE
:1001D000D1DF83EC99E00197F1F700C0000081E8DE
:1001E000C9DF83EC99E00197F1F700C00000AE9AF7
:1001F00081E08093B4010895EF92FF92CF93DF9353
:10020000E82EE7017E01F92EE70101C0ACDF8991FC
:100210008823E1F7DF91CF91FF90EF90089561116E
:10022000805CAC988068A6DFAC9A0895AC9881E0B9
:10023000A1DFAC9A08958091B401882339F0AC987D
:1002400088E098DFAC9A1092B4010895AC988FE0E2
:1002500091DF83EC99E00197F1F700C0000081E0A5
:1002600089DF83EC99E00197F1F700C0000081E895
:1002700081DF83EC99E00197F1F700C00000AC9AB0
:1002800081E08093B401089584B38F6084BB81B30F
:10029000837081BB089561E070E082B38C6F82BB94
:1002A00020E030E0CB01022E02C0880F991F0A9493
:1002B000E2F7809585BB82E090E040B350E0082EE5
:1002C00002C0559547950A94E2F740FD23C041E0EE
:1002D00050E0082E02C0440F551F0A94E2F706C0F2
:1002E000E3EDF0E33197F1F700C0000060B370E098
:1002F000642375236115710599F3F901EE0FFF1F52
:10030000E20FF31FEE0FFF1FE80FF91FE25AFF4F36
:100310008081089501968830910579F62F5F3F4FCF
:100320002430310509F0BECFB8CFEF92FF920F9382
:100330001F93DF93CF93CDB7DEB7C054D0400FB635
:10034000F894DEBF0FBECDBF8DD26091C201709117
:10035000C3018091C4019091C50149E025E07E016F
:100360000894E11CF11C8701D5D7C70182D2C05C7B
:10037000DF4F0FB6F894DEBF0FBECDBFCF91DF9138
:100380001F910F91FF90EF9008950F931F93E42F0B
:10039000A9019801EB3209F4CFD3262F372F482F2C
:1003A000592F2093BC013093BD014093BE0150935F
:1003B000BF011F910F910895EF92FF920F931F932A
:1003C00080E061E02CDF88E790E016DFE090BC0180
:1003D000F090BD010091BE011091BF01C801B701AD
:1003E00025EA34ED48E653E5EED418164CF0C80182
:1003F000B70149E025E004EA11E08CD7C80102C04A
:100400008CE890E0F9DE84E090E09093BB0180936B
:10041000BA011F910F91FF90EF900895805DA3DEC8
:10042000089504DF80E060E0FADE1092C1011092CE
:10043000C0011092BB011092BA011092B50180E088
:1004400090E0DC018093B6019093B701A093B801CE
:10045000B093B9018093C6019093C701A093C801DE
:10046000B093C9018093BC019093BD01A093BE01DC
:10047000B093BF010895DFDE08957F928F929F921F
:10048000AF92BF92CF92DF92EF92FF920F931F93A2
:10049000CF93DF93182FEB014A01082F005390E20E
:1004A000792E0F2EF0E0CF2EF0E0DF2EF0E0EF2ED1
:1004B000F0E0FF2EF02D81E0A82EB12C0A3008F0DC
:1004C000B8C08091BA019091BB018230910509F4C6
:1004D0004BC08330910538F4009771F0813091055D
:1004E00009F088C111C08330910509F445C08430FA
:1004F000910509F07FC172C0002331F081E090E0E6
:100500009093BB018093BA018091C0019091C10189
:100510008E30910509F46EC18881882309F052C09C
:100520006091C6017091C7018091C8019091C90185
:1005300020E030E040E251E451D36B017C01602FB8
:1005400070E0882777FD8095982F68D49B01AC01D7
:10055000C701B601F1D26093C6017093C7018093C1
:10056000C8019093C9012EC0002331F083E090E0D0
:100570009093BB018093BA018881882319F560911B
:10058000B6017091B7018091B8019091B90120E056
:1005900030E040E251E422D36B017C01602F70E037
:1005A000882777FD8095982F39D49B01AC01C7012E
:1005B000B601C2D26093B6017093B7018093B801BF
:1005C0009093B901812FCFDD8091C0019091C1013D
:1005D00001969093C1018093C0010CC1002309F4DE
:1005E00009C170927B0070927C0080E060E017DEB1
:1005F0008BE790E001DE80E060E011DE1092C10147
:100600001092C0011092B501C092B601D092B7010C
:10061000E092B801F092B901C092C601D092C70130
:10062000E092C801F092C901B092BB01A092BA0158
:1006300045CF1E3229F481E088838EE294DDDAC052
:10064000188281E090E0F401918380831D3309F4E6
:1006500099C0153709F4CDC01B3209F0CBC0809189
:10066000BA019091BB018230910581F083309105F0
:1006700028F48130910509F081C00BC083309105C9
:10068000D1F08430910509F079C044C080E060E089
:10069000C6DD8BE268DD8091C0019091C1010196B9
:1006A0009093C1018093C00182E090E09093BB01E0
:1006B0008093BA0163C06091C6017091C7018091B7
:1006C000C8019091C9010091B6011091B701209124
:1006D000B8013091B9014091B50157DE6DDE6091EE
:1006E000C6017091C7018091C8019091C901009124
:1006F000B6011091B7012091B8013091B901409134
:10070000B50143DE6093C2017093C3018093C401BD
:100710009093C50180E060E082DD81E480937B00FE
:100720008BE280937C008BE790E066DD82E060E006
:1007300076DD22E030E03093C1012093C00180914A
:10074000BC019091BD01A091BE01B091BF01809309
:10075000C6019093C701A093C801B093C90180E07E
:1007600090E0DC018093B6019093B701A093B801AB
:10077000B093B9013093BB012093BA018BE280930F
:10078000B50138C08091BA019091BB0183309105C9
:1007900089F56091C6017091C7018091C80190915F
:1007A000C9010091B6011091B7012091B8013091B3
:1007B000B9014091B501E9DDFFDD6091C60170919D
:1007C000C7018091C8019091C9010091B6011091B3
:1007D000B7012091B8013091B9014091B501D5DD43
:1007E0006093C2017093C3018093C4019093C501CB
:1007F00001C09BDDDF91CF911F910F91FF90EF9092
:10080000DF90CF90BF90AF909F908F907F90089592
:10081000EF92FF920F931F93DF93CF9300D00F922D
:10082000CDB7DEB7198281E090E09B838A8322E016
:10083000E22EF12CEC0EFD1E8E010F5F1F4F2BDD03
:10084000B801A7011ADEFBCF8FE996E8A1E081503D
:100850009040A040E1F700C0000093DC15DDE1DD31
:10086000D7DF089589E189B988E08AB986E880BD33
:100870000895CF93DF93282F392FE90120E030E04E
:1008800006C05D9BFECF49914CB92F5F3F4FFC01E5
:1008900001900020E9F73197E81BF90B2E173F076D
:1008A00080F3DF91CF910895A0E0B0E0E9E5F4E0B6
:1008B000FEC4FC01EA018081823008F438C1DB010A
:1008C0009C91923008F430C1843059F4943009F08E
:1008D0002EC1918111968C911197981709F021C121
:1008E00026C1943009F420C19230B1F4823009F06D
:1008F0001EC1CA01AF0128E0DA010D90AD01DC0193
:100900000D92CD012150C1F7DB0111968C91119709
:100910009181892389830AC1823009F405C1C2808B
:10092000D380DB0112966D907C90139724813581E2
:10093000468157811496ED90FD900D911C9117976B
:10094000C601861997095C0197FF04C0AA24BB243D
:10095000A81AB90AB0E2AB16B1040CF061C01816BF
:1009600019066CF5370148010A2C04C09694879447
:10097000779467940A94D2F781E090E0A0E0B0E029
:100980000A2C04C0880F991FAA1FBB1F0A94D2F714
:100990000197A109B1098E219F21A023B123EE2443
:1009A000FF248701E3940097A105B10519F4EE2413
:1009B000FF248701E628F728082919293CC0009759
:1009C000D1F1CA0CDB1C39014A010A2C04C09694EF
:1009D0008794779467940A94D2F781E090E0A0E03E
:1009E000B0E00A2C04C0880F991FAA1FBB1F0A94ED
:1009F000D2F70197A109B10982239323A423B52338
:100A000021E030E040E050E00097A105B10519F485
:100A100020E030E0A90126293729482959290BC0AF
:100A20006C147D0424F4EE24FF24870104C06301C8
:100A300020E030E0A9018181FB019181891709F44F
:100A400045C0882349F0D801C701821B930BA40B32
:100A5000B50B9C01AD0104C02E193F09400B510B91
:100A600057FD04C01982DB82CA820BC081E08983F2
:100A7000DB82CA8250954095309521953F4F4F4F6C
:100A80005F4F2C833D834E835F830DC0880F991F7A
:100A9000AA1FBB1F8C839D83AE83BF838A819B81EA
:100AA00001979B838A838C819D81AE81BF819C014C
:100AB000AD0121503040404050402F3FEFEF3E0706
:100AC000EFEF4E07EFE35E0708F30BC08983DB828D
:100AD000CA822E0D3F1D401F511F2C833D834E8324
:100AE0005F8383E088832C813D814E815F8157FF46
:100AF0001DC0DA01C90181709070A070B070569568
:100B0000479537952795822B932BA42BB52B8C8358
:100B10009D83AE83BF838A819B8101969B838A8359
:100B200005C0EBE9F0E003C0FB0101C0FE01CF010D
:100B3000CDB7DEB7EEE0D7C3A0E2B0E0E1EAF5E082
:100B4000BEC369837A838B839C832D833E834F83CB
:100B5000588789E0E82EF12CEC0EFD1ECE0101969F
:100B6000B701DFD28E010F5E1F4FCE010596B8018F
:100B7000D8D2C701B801AE01475E5F4F95DE04D2FF
:100B8000A096E6E0B8C3A0E2B0E0E8ECF5E097C3D9
:100B900069837A838B839C832D833E834F8358871D
:100BA0008E01075F1F4FCE010196B801BAD291E1C5
:100BB000E92EF12CEC0EFD1ECE010596B701B1D247
:100BC0008A8991E089278A8BC801B701AE01475E07
:100BD0005F4F6ADED9D1A096E6E08DC3A0E2B0E017
:100BE000E3EFF5E060C369837A838B839C832D8375
:100BF0003E834F835887CE010196BE01675F7F4FCA
:100C000090D2CE010596BE016F5E7F4F8AD2998544
:100C1000923078F089898230C0F0943019F48230B3
:100C200041F4CBC0843019F4923079F4C6C09230CC
:100C300051F481E02A859A89291709F480E08A878E
:100C4000CE010996BCC0823051F481E02A859A8990
:100C5000291709F480E08A8BCE014196B0C06D84DB
:100C60007E848F849888ED88FE880F89188DE0E255
:100C7000F0E080E090E0DC01AA24BB24650120E0E4
:100C800030E0A901B3016170707061157105D1F098
:100C90002E0D3F1D401F511F15012601280E391E24
:100CA0004A1E5B1E81E090E0A0E0B0E02E153F05FB
:100CB0004007510718F080E090E0DC01820D931DA1
:100CC000A41DB51DAA0CBB1CCC1CDD1C17FF09C044
:100CD00061E0262E312C412C512CA228B328C428A7
:100CE000D528319749F0EE0CFF1C001F111F969478
:100CF000879477946794C6CF6B897C89EB85FC8554
:100D00006E0F7F1F6E5F7F4F7C8F6B8F61E0EA8578
:100D10007A89E71709F460E06A8F6B8D7C8D10C0CB
:100D2000FC01E170F070309729F0569547953795A2
:100D300027955068B695A795979587956F5F7F4FD4
:100D4000B7FDEECF0CC0880F991FAA1FBB1F57FD20
:100D50008160220F331F441F551F61507040803047
:100D6000E0E09E07E0E0AE07E0E4BE0760F36B8FD3
:100D70007C8F6FE7E62EF12C012D112DE822F92250
:100D80000A231B2360E4E616F1040105110561F452
:100D900087FD0AC0211531054105510529F0805C08
:100DA0009F4FAF4FBF4F80788D8F9E8FAF8FB8A36F
:100DB00083E0898FCE01499602C08BE990E0E4D0B0
:100DC000A096E2E18CC2A8E1B0E0E8EEF6E077C2DE
:100DD00069837A838B839C832D833E834F835887DB
:100DE0008E01075F1F4FCE010196B8019AD181E1B4
:100DF000E82EF12CEC0EFD1ECE010596B70191D127
:100E00008985823038F08989823020F0C801B701A5
:100E1000F1D101C081E06896E6E06DC2A8E0B0E0E3
:100E2000E3E1F7E04CC27B018C0183E08983D801C8
:100E3000C7018827B7FD83959927AA27BB27282FA5
:100E40008A83E114F1040105110519F482E0898314
:100E500036C08EE190E09C838B83222389F080E072
:100E6000E81680E0F80680E0080780E8180759F1E6
:100E700010950095F094E094E11CF11C011D111DEA
:100E8000ED82FE820F831887C801B70123D09C0131
:100E9000215030401216130694F4022E04C0EE0CBA
:100EA000FF1C001F111F0A94D2F7ED82FE820F83F0
:100EB00018878EE190E0821B930B9C838B83CE017D
:100EC000019662D004C060E070E080E09FEC28965C
:100ED000E6E011C2AF92BF92CF92DF92EF92FF9203
:100EE0000F931F937B018C0180E0E81680E0F806E9
:100EF00081E0080780E0180758F4EFEFEE16F104E0
:100F00000105110509F090F480E090E0DC0117C0C4
:100F1000F0E0EF16F0E0FF06F0E00F07F1E01F074A
:100F200050F480E190E0A0E0B0E009C088E090E0FB
:100F3000A0E0B0E004C088E190E0A0E0B0E020E2F2
:100F400030E040E050E0281B390B4A0B5B0B5701A7
:100F5000680104C0D694C794B794A7948A95D2F731
:100F6000D601C5018D559F4FFC018081281B310999
:100F700041095109C9011F910F91FF90EF90DF9036
:100F8000CF90BF90AF900895EF92FF920F931F9371
:100F9000CF93DF93FC0124813581468157816181A4
:100FA0008081823020F44061EFEFF0E0A3C0843014
:100FB00009F49BC0823009F492C021153105410526
:100FC000510509F48FC00280F381E02D8FEFE238E4
:100FD000F8070CF05AC0C2E8DFEFCE1BDF0BCA31B6
:100FE000D1056CF579018A010C2E04C01695079580
:100FF000F794E7940A94D2F781E090E0A0E0B0E0A3
:101000000C2E04C0880F991FAA1FBB1F0A94D2F789
:101010000197A109B10982239323A423B52321E0D9
:1010200030E040E050E00097A105B10519F420E060
:1010300030E0A9012E293F29402B512B03C020E08D
:1010400030E0A901DA01C9018F779070A070B0700B
:1010500080349105A105B10539F427FF09C0205C52
:101060003F4F4F4F5F4F04C0215C3F4F4F4F5F4F8B
:10107000E1E0F0E0203080E0380780E0480780E4DD
:10108000580728F5E0E0F0E022C0E038F1056CF503
:10109000E158FF4FDA01C9018F779070A070B070EE
:1010A00080349105A105B10539F427FF09C0205C02
:1010B0003F4F4F4F5F4F04C0215C3F4F4F4F5F4F3B
:1010C00057FF05C05695479537952795319687E088
:1010D00056954795379527958A95D1F70BC0E0E04F
:1010E000F0E005C0E0E0F0E005C0EFEFF0E020E068
:1010F00030E0A9018E2F879588278795942F9F77B9
:10110000679566276795E695E22EA92FA82BFE2FF7
:10111000F62B622F732F8A2F9F2FCDB7DEB7E6E015
:10112000EAC0DC01FB012C9111963C9111971296BB
:101130008C911297482F4F7750E0982F991F99273D
:10114000991F13966C911397862F880F892B90E027
:10115000661F6627661F6183009739F521153105E3
:101160004105510511F482E029C082E89FEF938385
:10117000828367E0220F331F441F551F6A95D1F702
:1011800083E0808309C0220F331F441F551F8281D3
:101190009381019793838283203080E0380780E039
:1011A000480780E4580778F320C08F3F910579F411
:1011B000211531054105510519F484E08083089516
:1011C00044FF03C081E0808310C010820EC08F579F
:1011D00090409383828383E0808387E0220F331FD4
:1011E000441F551F8A95D1F7506424833583468365
:1011F00057830895FC01DB019081923008F449C0C7
:101200008C91823008F445C0943051F4618184306F
:10121000B1F511962C91119730E0261B310941C090
:10122000843021F0923041F48230B1F111968C91EA
:1012300011978823A1F12DC06181823001F11196AF
:101240008C9111976817D9F42281338112968D9170
:101250009C9113978217930794F028173907BCF0D5
:10126000248135814681578114968D919D910D90F1
:10127000BC91A02D82179307A407B50718F4662325
:1012800041F00DC0281739074A075B0728F4662389
:1012900031F021E030E005C020E030E002C02FEF67
:1012A0003FEFC90108952F923F924F925F926F9244
:1012B0007F928F929F92AF92BF92CF92DF92EF92E6
:1012C000FF920F931F93CF93DF93CDB7DEB7CA1B67
:1012D000DB0B0FB6F894DEBF0FBECDBF09942A8892
:1012E000398848885F846E847D848C849B84AA843A
:1012F000B984C884DF80EE80FD800C811B81AA81C7
:10130000B981CE0FD11D0FB6F894DEBF0FBECDBF91
:10131000ED010895EF92FF920F931F93322FF02E5D
:1013200047FF02C0A4E101C0A4E0E42FFF27E7FDCE
:10133000F095F7FF03C0F095E195FF4F4F2D512F2A
:101340002E2F032FEA2E07D08F2D912F1F910F9153
:10135000FF90EF900895A9E0B0E0E0EBF9E0ABCFAB
:101360006A01F22E102F0C3318F4B02EB39402C081
:10137000ECE3BE2EAE014F5F5F4F27E00B2D3FD158
:10138000298130E0A901497050704130510531F098
:10139000E1FC06C0E0FE06C0E0E205C0EDE203C0ED
:1013A000EBE201C0E0E023FF37C0EE2311F084E060
:1013B00001C083E08F1518F4F81A8F2D01C080E06A
:1013C000E4FC0BC0982FD60120E202C02D9391506F
:1013D0009923E1F7C80ED11C80E0EE2319F0D60165
:1013E000ED936D01F6013196E2FE05C09EE4D60153
:1013F0009C9321E404C09EE6D6019C9321E61196BD
:101400002C9391833296982FDF0120E202C02D9316
:1014100091509923E1F73DC022FF41C0EE2311F026
:1014200084E001C083E08F1518F4F81A8F2D01C0F5
:1014300080E0E4FC0BC0982FD60120E202C02D937F
:1014400091509923E1F7C80ED11C80E0EE2319F0EA
:10145000D601ED936D01F6013196E2FE09C099E4E3
:10146000D6019C939EE411969C93119796E407C035
:1014700099E6D6019C939EE611969C9396E69183FD
:101480003296982FDF0120E202C02D9391509923CC
:10149000E1F7E80FF11D10822EEF3FEFACC041E005
:1014A00050E0EE2311F440E050E01816190624F441
:1014B000BC016F5F7F4F02C061E070E0640F751F79
:1014C000112329F0412F50E04F5F5F4F02C040E0F1
:1014D00050E0460F571F6F2D70E0461757071CF45A
:1014E0000F2D041B01C000E0FF24A70140715070C4
:1014F000E4FC0DC0E3FC0BC0602FD60170E202C01B
:101500007D9361506623E1F7C00ED11C00E0EE230D
:1015100019F0D601ED936D014115510559F4402F95
:10152000F60150E302C0519341504423E1F7C00E4D
:10153000D11C00E0B80EFA80A9014071507024FF60
:1015400004C0BF2DB13309F4BA941B142CF4AB2D95
:10155000A93018F0A8E001C0A1E09C0197FF02C0EB
:1015600020E030E0BC016F5F7F4F621B730BFE0118
:101570003196E60FF71F6EE2E62EBC016A1B710979
:10158000A12FB0E0AA24BB24AA1ABB0A1FEF2F3F49
:10159000310719F4D601ED926D01821793072CF0F3
:1015A0006217730714F4108101C010E3215030401A
:1015B00031962A153B0524F0D6011D936D01E6CF27
:1015C0002817390749F4BF2DB63328F4B53321F471
:1015D0004115510509F411E3F6011193802FDF0144
:1015E00090E202C09D9381508823E1F7E00FF11D46
:1015F000108220E030E0C9012996EAE078CE283058
:1016000008F027E03327DA01990F311D87FD91603B
:1016100000966105710539F432602E5F3D9330E329
:101620002A95E1F708959F3F30F0803871056105F4
:1016300009F03C5F3C5F3D93913008F08068911D5C
:10164000DF93CF931F930F93FF92EF92192F987F01
:101650009695E92F96959695E90FFF27E458FF4F49
:1016600099273327EE24FF24A701E701059008946A
:10167000079428F4360FE71EF81E491F511D660F08
:10168000771F881F991F0694A1F70590079428F4E7
:10169000E70EF81E491F561FC11D770F881F991F9F
:1016A000661F0694A1F70590079428F4F80E491FC9
:1016B000561FC71FD11D880F991F661F771F0694DD
:1016C000A1F70590079420F4490F561FC71FD81F94
:1016D000990F661F771F881F0694A9F784911095AC
:1016E000177041F0D695C79557954795F794E794AD
:1016F0001A95C1F7E2E2F0E06894159015913591E2
:101700006591959105907FE27395E118F10A430B7D
:10171000560BC90BD009C0F7E10CF11E431F561F31
:10172000C91FD01D7EF4703311F48A95E6CFE8947A
:10173000015030F0080F0AF40027021708F4202F98
:101740002395022F7A3328F079E37D932A95E9F7E0
:1017500010C07D932A9589F60694979567953795DD
:1017600017951794E118F10A430B560BC90BD009D2
:1017700098F023957E9173957A3308F070E37C930B
:101780002013B8F77E9170617D9330F0839571E3FB
:101790007D9370E32A95E1F71124EF90FF900F916C
:1017A0001F91CF91DF91992787FD90950895F89427
:0217B000FFCF69
:1017B2003738396D764F3435362A2F433132332B51
:1017C2002D3D302E7075413D413D002020202020CE
:1017D2002020202020202020202020002020204FF8
:1017E200766572666C6F7720202000000000000092
:1017F20000000000010202030303030404040404C2
:101802000404040505050505050505050505050589
:101812000505050606060606060606060606060669
:101822000606060606060606060606060606060656
:101832000606060707070707070707070707070739
:101842000707070707070707070707070707070726
:101852000707070707070707070707070707070716
:101862000707070707070707070707070707070706
:1018720007070708080808080808080808080808E9
:1018820008080808080808080808080808080808D6
:1018920008080808080808080808080808080808C6
:1018A20008080808080808080808080808080808B6
:1018B20008080808080808080808080808080808A6
:1018C2000808080808080808080808080808080896
:1018D2000808080808080808080808080808080886
:1018E2000808080808080808080808080808080876
:0418F20008080800DA
:00000001FF
