:100000008DC0A7C0A6C0A5C0A4C0A3C0A2C0A1C0E7
:10001000A0C09FC09EC09DC09CC09BC09AC099C0FC
:1000200098C000407A10F35A00A0724E18090010D0
:10003000A5D4E80000E87648170000E40B5402005D
:1000400000CA9A3B000000E1F50500008096980088
:10005000000040420F000000A086010000001027B1
:1000600000000000E8030000000064000000000041
:100070000A00000000000100000000002C76D88873
:10008000DC674F0823DFC1DFAE59E1B1B796E5E386
:10009000E453C63AE651997696E8E6C28426EB899F
:1000A0008C9B62ED407C6FFCEFBC9C9F40F2BAA53C
:1000B0006FA5F490055A2AF75C936B6CF9676DC1D4
:1000C0001BFCE0E40D47FEF520E6B500D0ED902ED8
:1000D0000300943577050080841E080000204E0A36
:1000E000000000C80C333333330F986E1283114174
:1000F000EF8D2114893BE65516CFFEE6DB18D1843F
:100100004B381BF77C1D901DA4BBE4242032847265
:100110005E228100C9F124ECA1E53D2711241FBE18
:10012000CFE5D2E0DEBFCDBF11E0A0E6B0E0E4EA6B
:10013000F8E102C005900D92A43AB107D9F711E099
:10014000A4EAB1E001C01D92A53CB107E1F702D0DD
:10015000A7CB56CF19D380E090E00895AE9A000067
:10016000AE98000008958BBBF9DF8DE08A95F1F71A
:10017000000008958BBBF2DF8DE08A95F1F7000057
:10018000089584B3806584BB8FEF8ABBAE9885EAFF
:100190009EE00197F1F700C0000088E3EBDF81EEFD
:1001A00094E00197F1F700C0000088E3E3DF91E2FB
:1001B0009A95F1F7000088E3DDDF8FE0DBDF83EC69
:1001C00099E00197F1F700C0000081E0D3DF83ECF4
:1001D00099E00197F1F700C0000081E8CBDF83ECE4
:1001E00099E00197F1F700C00000AE9A0895EF92F0
:1001F000FF92CF93DF93E82EE7017E01F92EE7010E
:1002000001C0B1DF89918823E1F7DF91CF91FF90A1
:10021000EF9008956111805CAC988068ABDFAC9A78
:100220000895AC9881E0A6DFAC9A089584B38F60FE
:1002300084BB81B3807C81BB089561E070E082B3B0
:100240008F6382BB20E030E0CB01022E02C0880F1A
:10025000991F0A94E2F7809585BB80E090E040B357
:1002600050E0082E02C0559547950A94E2F740FDEC
:1002700023C041E050E0082E02C0440F551F0A94ED
:10028000E2F706C0E3EDF0E33197F1F700C00000BC
:1002900060B370E0642375236115710599F3F9016A
:1002A000EE0FFF1FE20FF31FEE0FFF1FE80FF91F06
:1002B000E05AFF4F8081089501968630910579F6C6
:1002C0002F5F3F4F2430310509F0BECFB8CF0F93D9
:1002D0001F93E42FA9019801EB3251F0EC3218F48E
:1002E000EA3269F409C0ED3229F0EF3241F406C078
:1002F000A1D305C0C6D303C0EFD301C0E2D4262FDB
:10030000372F482F592F2093BB013093BC014093C6
:10031000BD015093BE011F910F910895EF92FF927E
:100320000F931F9380E061E075DF88E790E05FDF67
:10033000E090BB01F090BC010091BD011091BE01A5
:10034000C801B70125EA34ED48E653E58ED5181605
:100350004CF0C801B70142EF2CE004EA11E053D899
:10036000C80102C08CE890E042DF84E090E0909306
:10037000BA018093B9011F910F91FF90EF900895FA
:10038000805DF1DE08954DDF80E060E043DF109294
:10039000C0011092BF011092BA011092B9011092DF
:1003A000B40180E090E0DC018093B5019093B60148
:1003B000A093B701B093B8018093C1019093C2019B
:1003C000A093C301B093C4018093BB019093BC017F
:1003D000A093BD01B093BE0108958F929F92AF92FA
:1003E000BF92CF92DF92FF920F931F93DF93CF9331
:1003F0000F92CDB7DEB7F82E282F205381E0882E3C
:10040000912C00E20F2EF0E0AF2EF0E0BF2EF0E0D6
:10041000CF2EF0E0DF2EF02D122F2A3058F08F2D46
:100420008E3209F0E6C09092BA018092B90110E0D4
:1004300031E001C030E08091B9019091BA01823081
:10044000910509F467C08330910538F4009771F085
:100450008130910509F088C114C08330910509F4F9
:1004600061C08430910509F07FC196C0112349F025
:100470003983D7DE81E090E09093BA018093B9018F
:1004800039818091BF019091C0013323F9F48E30FE
:10049000910509F469C16091C1017091C201809117
:1004A000C3019091C40120E030E040E251E414D354
:1004B0005B016C01612F70E0882777FD8095982F94
:1004C000FFD49B01AC01C601B50116C08E30910569
:1004D00009F44AC1812F90E06AE070E036D788279E
:1004E00077FD8095982FECD42091C1013091C20105
:1004F0004091C3015091C4019DD2262F372F482F20
:10050000592F2093C1013093C2014093C3015093EE
:10051000C4012FC0112331F083E090E09093BA0121
:100520008093B9016091B5017091B6018091B701D6
:100530009091B80120E030E040E251E4CDD25B017F
:100540006C01612F70E0882777FD8095982FB8D4D3
:100550009B01AC01C601B5016DD2262F372F482F64
:10056000592F2093B5013093B6014093B7015093B2
:10057000B80120E030E0A9014DD418160CF0F4C009
:100580008F2DF1DD8091BF019091C0010196909374
:10059000C0018093BF01E8C0112309F4E5C00093B6
:1005A0007B0000937C0080E060E0298333DE8BE7F2
:1005B00090E01DDE80E060E02DDE1092C001109220
:1005C000BF011092B401A092B501B092B601C092E1
:1005D000B701D092B801A092C101B092C201C092FD
:1005E000C301D092C4019092BA018092B9012981CD
:1005F00013CFEF2DE33629F1E436A8F4EF3209F1F9
:10060000E03348F4EA3208F4AFC0EC32D0F0ED3217
:1006100009F0AAC016C0FF2DFD3309F488C0F334D9
:1006200009F0A2C0A0C08F2D803759F0813720F487
:100630008D3609F099C005C08F2D8357823008F0A0
:1006400093C08091B9019091BA018230910581F0F7
:100650008330910528F48130910509F065C00BC005
:1006600083309105D1F08430910509F05DC029C037
:1006700080E060E0CFDD8F2D76DD8091BF0190912D
:10068000C00101969093C0018093BF0182E090E089
:100690009093BA018093B90147C06091C1017091F4
:1006A000C2018091C3019091C4010091B5011091E4
:1006B000B6012091B7013091B8014091B40107DE35
:1006C0002DDE80E060E0A6DD81E480937B00F09287
:1006D0007C008BE790E08BDD82E060E09BDD22E038
:1006E00030E03093C0012093BF018091BB01909115
:1006F000BC01A091BD01B091BE018093C101909356
:10070000C201A093C301B093C40180E090E0DC017A
:100710008093B5019093B601A093B701B093B8014F
:100720003093BA012093B901F092B4011DC08091B9
:10073000B9019091BA0183309105B1F46091C10182
:100740007091C2018091C3019091C4010091B501E3
:100750001091B6012091B7013091B8014091B401D8
:10076000B6DDDCDD01C00FDE0F90CF91DF911F9170
:100770000F91FF90DF90CF90BF90AF909F908F90A0
:1007800008955BDD2ADEFDCF8FE996E8A1E0815078
:100790009040A040E1F700C00000F3DC47DDF3DD4E
:1007A000F0DF0895A0E0B0E0E7EDF3E0F9C5FC016B
:1007B000EA018081823008F438C1DB019C919230DB
:1007C00008F430C1843059F4943009F02EC191817D
:1007D00011968C911197981709F021C126C1943078
:1007E00009F420C19230B1F4823009F01EC1CA016F
:1007F000AF0128E0DA010D90AD01DC010D92CD01D1
:100800002150C1F7DB0111968C91119791818923B9
:1008100089830AC1823009F405C1C280D380DB011B
:1008200012966D907C901397248135814681578173
:100830001496ED90FD900D911C911797C6018619A5
:1008400097095C0197FF04C0AA24BB24A81AB90A1F
:10085000B0E2AB16B1040CF061C0181619066CF5C5
:10086000370148010A2C04C09694879477946794C2
:100870000A94D2F781E090E0A0E0B0E00A2C04C036
:10088000880F991FAA1FBB1F0A94D2F70197A109CD
:10089000B1098E219F21A023B123EE24FF248701DB
:1008A000E3940097A105B10519F4EE24FF24870114
:1008B000E628F728082919293CC00097D1F1CA0C6D
:1008C000DB1C39014A010A2C04C096948794779462
:1008D00067940A94D2F781E090E0A0E0B0E00A2C9F
:1008E00004C0880F991FAA1FBB1F0A94D2F7019753
:1008F000A109B10982239323A423B52321E030E089
:1009000040E050E00097A105B10519F420E030E087
:10091000A90126293729482959290BC06C147D04BF
:1009200024F4EE24FF24870104C0630120E030E0BA
:10093000A9018181FB019181891709F445C08823B0
:1009400049F0D801C701821B930BA40BB50B9C0186
:10095000AD0104C02E193F09400B510B57FD04C0D7
:100960001982DB82CA820BC081E08983DB82CA8262
:1009700050954095309521953F4F4F4F5F4F2C83B9
:100980003D834E835F830DC0880F991FAA1FBB1F35
:100990008C839D83AE83BF838A819B8101979B83D8
:1009A0008A838C819D81AE81BF819C01AD012150E4
:1009B0003040404050402F3FEFEF3E07EFEF4E07F3
:1009C000EFE35E0708F30BC08983DB82CA822E0D3A
:1009D0003F1D401F511F2C833D834E835F8383E067
:1009E00088832C813D814E815F8157FF1DC0DA01D4
:1009F000C90181709070A070B07056954795379579
:100A00002795822B932BA42BB52B8C839D83AE83B0
:100A1000BF838A819B8101969B838A8305C0EBE912
:100A2000F0E003C0FB0101C0FE01CF01CDB7DEB78E
:100A3000EEE0D2C4A0E2B0E0EFE1F5E0B9C4698332
:100A40007A838B839C832D833E834F83588789E0F1
:100A5000E82EF12CEC0EFD1ECE010196B701B3D3AA
:100A60008E010F5E1F4FCE010596B801ACD3C701B2
:100A7000B801AE01475E5F4F95DED8D2A096E6E0A2
:100A8000B3C4A0E2B0E0E6E4F5E092C469837A83FF
:100A90008B839C832D833E834F8358878E01075F12
:100AA0001F4FCE010196B8018ED391E1E92EF12CB2
:100AB000EC0EFD1ECE010596B70185D38A8991E023
:100AC00089278A8BC801B701AE01475E5F4F6ADE96
:100AD000ADD2A096E6E088C4A0E2B0E0E1E7F5E0A0
:100AE0005BC469837A838B839C832D833E834F838E
:100AF0005887CE010196BE01675F7F4F64D3CE0158
:100B00000596BE016F5E7F4F5ED39985923078F077
:100B100089898230C0F0943019F4823041F4CBC01E
:100B2000843019F4923079F4C6C0923051F481E0E7
:100B30002A859A89291709F480E08A87CE010996C7
:100B4000BCC0823051F481E02A859A89291709F4C2
:100B500080E08A8BCE014196B0C06D847E848F8404
:100B60009888ED88FE880F89188DE0E2F0E080E03B
:100B700090E0DC01AA24BB24650120E030E0A9015B
:100B8000B3016170707061157105D1F02E0D3F1DBC
:100B9000401F511F15012601280E391E4A1E5B1EDB
:100BA00081E090E0A0E0B0E02E153F05400751073E
:100BB00018F080E090E0DC01820D931DA41DB51DAE
:100BC000AA0CBB1CCC1CDD1C17FF09C061E0262E43
:100BD000312C412C512CA228B328C428D528319778
:100BE00049F0EE0CFF1C001F111F96948794779418
:100BF0006794C6CF6B897C89EB85FC856E0F7F1F60
:100C00006E5F7F4F7C8F6B8F61E0EA857A89E71793
:100C100009F460E06A8F6B8D7C8D10C0FC01E1707F
:100C2000F070309729F0569547953795279550687D
:100C3000B695A795979587956F5F7F4FB7FDEECFD8
:100C40000CC0880F991FAA1FBB1F57FD8160220F80
:100C5000331F441F551F615070408030E0E09E07F5
:100C6000E0E0AE07E0E4BE0760F36B8F7C8F6FE7D8
:100C7000E62EF12C012D112DE822F9220A231B2347
:100C800060E4E616F1040105110561F487FD0AC070
:100C9000211531054105510529F0805C9F4FAF4F6B
:100CA000BF4F80788D8F9E8FAF8FB8A383E0898FE1
:100CB000CE01499602C08BE990E0B8D1A096E2E15E
:100CC00087C3A8E1B0E0E6E6F6E06EC369837A8305
:100CD0008B839C832D833E834F8358878E01075FD0
:100CE0001F4FCE010196B8016ED281E1E82EF12CA2
:100CF000EC0EFD1ECE010596B70165D299859230A6
:100D000008F483C08989823008F47BC02A853A8937
:100D100023272A87943011F0923021F4981709F094
:100D20006CC071C0843039F41D861E861F86188AF7
:100D30001C861B866AC0823019F484E0898765C0EE
:100D40008B859C852B893C89821B930B9C878B8789
:100D50002D853E854F855889ED88FE880F89188D31
:100D60002E153F054007510738F4220F331F441F4B
:100D7000551F01979C878B876FE170E0A12CB12CE8
:100D8000C12CA0E4DA2E80E090E0DC012E153F05B6
:100D90004007510740F08A299B29AC29BD292E190B
:100DA0003F09400B510BD694C794B794A794220FD8
:100DB000331F441F551F6150704041F76FE7E62E07
:100DC000F12C012D112DE822F9220A231B2360E4C6
:100DD000E616F1040105110561F487FD0AC021152D
:100DE00031054105510529F0805C9F4FAF4FBF4F42
:100DF00080788D879E87AF87B88B8E01075F1F4FE6
:100E000004C0870102C00BE910E0C8010FD1689649
:100E1000EAE0E6C2A8E1B0E0EFE0F7E0C9C269832A
:100E20007A838B839C832D833E834F8358878E01E7
:100E3000075F1F4FCE010196B801C5D181E1E82EB1
:100E4000F12CEC0EFD1ECE010596B701BCD18985B3
:100E5000823038F08989823020F0C801B7011CD275
:100E600001C08FEF6896E6E0BFC2A8E1B0E0EAE318
:100E7000F7E09EC269837A838B839C832D833E83B4
:100E80004F8358878E01075F1F4FCE010196B8012F
:100E90009AD181E1E82EF12CEC0EFD1ECE010596D3
:100EA000B70191D18985823038F08989823020F06C
:100EB000C801B701F1D101C081E06896E6E094C2B3
:100EC000A8E0B0E0E5E6F7E073C27B018C0183E0C7
:100ED0008983D801C7018827B7FD83959927AA2759
:100EE000BB27282F8A83E114F1040105110519F4A9
:100EF00082E0898336C08EE190E09C838B8322233D
:100F000089F080E0E81680E0F80680E0080780E8D5
:100F1000180759F110950095F094E094E11CF11C2C
:100F2000011D111DED82FE820F831887C801B701D4
:100F300023D09C01215030401216130694F4022E47
:100F400004C0EE0CFF1C001F111F0A94D2F7ED82A3
:100F5000FE820F8318878EE190E0821B930B9C83A7
:100F60008B83CE01019662D004C060E070E080E027
:100F70009FEC2896E6E038C2AF92BF92CF92DF9204
:100F8000EF92FF920F931F937B018C0180E0E81694
:100F900080E0F80681E0080780E0180758F4EFEFDA
:100FA000EE16F1040105110509F090F480E090E0DF
:100FB000DC0117C0F0E0EF16F0E0FF06F0E00F07ED
:100FC000F1E01F0750F480E190E0A0E0B0E009C03C
:100FD00088E090E0A0E0B0E004C088E190E0A0E00C
:100FE000B0E020E230E040E050E0281B390B4A0B33
:100FF0005B0B5701680104C0D694C794B794A794BB
:101000008A95D2F7D601C5018D559F4FFC0180818D
:10101000281B310941095109C9011F910F91FF9006
:10102000EF90DF90CF90BF90AF900895EF92FF9236
:101030000F931F93CF93DF93FC0124813581468169
:10104000578161818081823020F44061EFEFF0E0D0
:10105000A3C0843009F49BC0823009F492C02115EA
:1010600031054105510509F48FC00280F381E02D5F
:101070008FEFE238F8070CF05AC0C2E8DFEFCE1B62
:10108000DF0BCA31D1056CF579018A010C2E04C041
:1010900016950795F794E7940A94D2F781E090E0CB
:1010A000A0E0B0E00C2E04C0880F991FAA1FBB1F40
:1010B0000A94D2F70197A109B10982239323A423AB
:1010C000B52321E030E040E050E00097A105B105F4
:1010D00019F420E030E0A9012E293F29402B512BA3
:1010E00003C020E030E0A901DA01C9018F779070D8
:1010F000A070B07080349105A105B10539F427FFC7
:1011000009C0205C3F4F4F4F5F4F04C0215C3F4FF1
:101110004F4F5F4FE1E0F0E0203080E0380780E0A3
:10112000480780E4580728F5E0E0F0E022C0E03806
:10113000F1056CF5E158FF4FDA01C9018F77907026
:10114000A070B07080349105A105B10539F427FF76
:1011500009C0205C3F4F4F4F5F4F04C0215C3F4FA1
:101160004F4F5F4F57FF05C05695479537952795C9
:10117000319687E056954795379527958A95D1F70B
:101180000BC0E0E0F0E005C0E0E0F0E005C0EFEF0C
:10119000F0E020E030E0A9018E2F87958827879521
:1011A000942F9F77679566276795E695E22EA92F7E
:1011B000A82BFE2FF62B622F732F8A2F9F2FCDB7D0
:1011C000DEB7E6E011C1DC01FB012C9111963C91E8
:1011D000119712968C911297482F4F7750E0982FC5
:1011E000991F9927991F13966C911397862F880F33
:1011F000892B90E0661F6627661F6183009739F58B
:10120000211531054105510511F482E029C082E81C
:101210009FEF9383828367E0220F331F441F551F84
:101220006A95D1F783E0808309C0220F331F441FE2
:10123000551F82819381019793838283203080E0C0
:10124000380780E0480780E4580778F320C08F3FD4
:10125000910579F4211531054105510519F484E012
:101260008083089544FF03C081E0808310C0108212
:101270000EC08F5790409383828383E0808387E002
:10128000220F331F441F551F8A95D1F750642483C2
:101290003583468357830895FC01DB0190819230AA
:1012A00008F449C08C91823008F445C0943051F460
:1012B00061818430B1F511962C91119730E0261B95
:1012C000310941C0843021F0923041F48230B1F1D3
:1012D00011968C9111978823A1F12DC061818230E4
:1012E00001F111968C9111976817D9F422813381FD
:1012F00012968D919C9113978217930794F028175B
:101300003907BCF0248135814681578114968D912F
:101310009D910D90BC91A02D82179307A407B5074E
:1013200018F4662341F00DC0281739074A075B07F8
:1013300028F4662331F021E030E005C020E030E001
:1013400002C02FEF3FEFC901089597FB092E072632
:101350000AD077FD04D00CD006D000201AF4709586
:1013600061957F4F0895F6F7909581959F4F089569
:10137000AA1BBB1B51E107C0AA1FBB1FA617B707BB
:1013800010F0A61BB70B881F991F5A95A9F78095D7
:101390009095BC01CD0108952F923F924F925F929C
:1013A0006F927F928F929F92AF92BF92CF92DF9275
:1013B000EF92FF920F931F93CF93DF93CDB7DEB7DA
:1013C000CA1BDB0B0FB6F894DEBF0FBECDBF09946E
:1013D0002A88398848885F846E847D848C849B84C5
:1013E000AA84B984C884DF80EE80FD800C811B81D3
:1013F000AA81B981CE0FD11D0FB6F894DEBF0FBE02
:10140000CDBFED010895EF92FF920F931F93322FFE
:10141000F02E47FF02C0A4E101C0A4E0E42FFF27A3
:10142000E7FDF095F7FF03C0F095E195FF4F4F2DD5
:10143000512F2E2F032FEA2E07D08F2D912F1F9182
:101440000F91FF90EF900895A9E0B0E0E9E2FAE093
:10145000ABCF6A01F22E102F0C3318F4B02EB394D8
:1014600002C0ECE3BE2EAE014F5F5F4F27E00B2DB5
:101470003FD1298130E0A9014970507041305105B8
:1014800031F0E1FC06C0E0FE06C0E0E205C0EDE29E
:1014900003C0EBE201C0E0E023FF37C0EE2311F010
:1014A00084E001C083E08F1518F4F81A8F2D01C075
:1014B00080E0E4FC0BC0982FD60120E202C02D93FF
:1014C00091509923E1F7C80ED11C80E0EE2319F06A
:1014D000D601ED936D01F6013196E2FE05C09EE462
:1014E000D6019C9321E404C09EE6D6019C9321E69C
:1014F00011962C9391833296982FDF0120E202C03F
:101500002D9391509923E1F73DC022FF41C0EE2376
:1015100011F084E001C083E08F1518F4F81A8F2DC4
:1015200001C080E0E4FC0BC0982FD60120E202C08D
:101530002D9391509923E1F7C80ED11C80E0EE2342
:1015400019F0D601ED936D01F6013196E2FE09C066
:1015500099E4D6019C939EE411969C93119796E48E
:1015600007C099E6D6019C939EE611969C9396E659
:1015700091833296982FDF0120E202C02D93915083
:101580009923E1F7E80FF11D10822EEF3FEFACC079
:1015900041E050E0EE2311F440E050E01816190647
:1015A00024F4BC016F5F7F4F02C061E070E0640F04
:1015B000751F112329F0412F50E04F5F5F4F02C08C
:1015C00040E050E0460F571F6F2D70E04617570759
:1015D0001CF40F2D041B01C000E0FF24A701407183
:1015E0005070E4FC0DC0E3FC0BC0602FD60170E22C
:1015F00002C07D9361506623E1F7C00ED11C00E06C
:10160000EE2319F0D601ED936D014115510559F402
:10161000402FF60150E302C0519341504423E1F7BB
:10162000C00ED11C00E0B80EFA80A90140715070C4
:1016300024FF04C0BF2DB13309F4BA941B142CF459
:10164000AB2DA93018F0A8E001C0A1E09C0197FFE4
:1016500002C020E030E0BC016F5F7F4F621B730B64
:10166000FE013196E60FF71F6EE2E62EBC016A1B03
:101670007109A12FB0E0AA24BB24AA1ABB0A1FEF4C
:101680002F3F310719F4D601ED926D0182179307B0
:101690002CF06217730714F4108101C010E321507D
:1016A000304031962A153B0524F0D6011D936D017B
:1016B000E6CF2817390749F4BF2DB63328F4B533E0
:1016C00021F44115510509F411E3F6011193802F1E
:1016D000DF0190E202C09D9381508823E1F7E00F83
:1016E000F11D108220E030E0C9012996EAE078CEB1
:1016F000283008F027E03327DA01990F311D87FDE4
:10170000916000966105710539F432602E5F3D935A
:1017100030E32A95E1F708959F3F30F08038710556
:10172000610509F03C5F3C5F3D93913008F08068B3
:10173000911DDF93CF931F930F93FF92EF92192F79
:10174000987F9695E92F96959695E90FFF27E4588F
:10175000FF4F99273327EE24FF24A701E7010590C7
:101760000894079428F4360FE71EF81E491F511DF0
:10177000660F771F881F991F0694A1F7059007949D
:1017800028F4E70EF81E491F561FC11D770F881F4A
:10179000991F661F0694A1F70590079428F4F80E88
:1017A000491F561FC71FD11D880F991F661F771F1E
:1017B0000694A1F70590079420F4490F561FC71F00
:1017C000D81F990F661F771F881F0694A9F7849169
:1017D0001095177041F0D695C79557954795F79492
:1017E000E7941A95C1F7E2E2F0E06894159015913C
:1017F00035916591959105907FE27395E118F10A15
:10180000430B560BC90BD009C0F7E10CF11E431F67
:10181000561FC91FD01D7EF4703311F48A95E6CF90
:10182000E894015030F0080F0AF40027021708F47A
:10183000202F2395022F7A3328F079E37D932A9580
:10184000E9F710C07D932A9589F6069497956795D8
:10185000379517951794E118F10A430B560BC90BEE
:10186000D00998F023957E9173957A3308F070E350
:101870007C932013B8F77E9170617D9330F083954F
:1018800071E37D9370E32A95E1F71124EF90FF90C7
:101890000F911F91CF91DF91992787FD9095089522
:0418A000F894FFCFEA
:1018A40037383973634F3435362A2F433132332B6B
:1018B4002D44302E6D70743D413D002020202020A9
:1018C4002020202020202020202020002020204F05
:1018D400766572666C6F772020200000000000009F
:1018E40000000000010202030303030404040404CF
:1018F4000404040505050505050505050505050597
:101904000505050606060606060606060606060676
:101914000606060606060606060606060606060663
:101924000606060707070707070707070707070746
:101934000707070707070707070707070707070733
:101944000707070707070707070707070707070723
:101954000707070707070707070707070707070713
:1019640007070708080808080808080808080808F6
:1019740008080808080808080808080808080808E3
:1019840008080808080808080808080808080808D3
:1019940008080808080808080808080808080808C3
:1019A40008080808080808080808080808080808B3
:1019B40008080808080808080808080808080808A3
:1019C4000808080808080808080808080808080893
:1019D4000808080808080808080808080808080883
:0419E40008080800E7
:00000001FF
